{
  "contractName": "CappedCrowdsale",
  "abi": [
    {
      "inputs": [
        {
          "internalType": "uint256",
          "name": "_softCap",
          "type": "uint256"
        },
        {
          "internalType": "uint256",
          "name": "_hardCap",
          "type": "uint256"
        }
      ],
      "stateMutability": "nonpayable",
      "type": "constructor"
    },
    {
      "inputs": [],
      "name": "hardCap",
      "outputs": [
        {
          "internalType": "uint256",
          "name": "",
          "type": "uint256"
        }
      ],
      "stateMutability": "view",
      "type": "function"
    },
    {
      "inputs": [],
      "name": "softCap",
      "outputs": [
        {
          "internalType": "uint256",
          "name": "",
          "type": "uint256"
        }
      ],
      "stateMutability": "view",
      "type": "function"
    }
  ],
  "bytecode": "0x608060405234801561001057600080fd5b5060405161019f38038061019f8339818101604052604081101561003357600080fd5b81019080805190602001909291908051906020019092919050505060008211801561005e5750600081115b6100d0576040517f08c379a000000000000000000000000000000000000000000000000000000000815260040180806020018281038252601c8152602001807f43617070656443726f7764616c653a20496e76616c6964204361703f0000000081525060200191505060405180910390fd5b8160008190555080600181905550505060b1806100ee6000396000f3fe6080604052348015600f57600080fd5b506004361060325760003560e01c8063906a26e0146037578063fb86a404146053575b600080fd5b603d606f565b6040518082815260200191505060405180910390f35b60596075565b6040518082815260200191505060405180910390f35b60005481565b6001548156fea2646970667358221220f179f2fb87088058dcbf6541786891d2555d95e2c992dbc5b80ad51d4539084a64736f6c63430007000033",
  "immutableReferences": {},
  "source": "// SPDX-License-Identifier: MIT;\npragma solidity ^0.7.0;\n\ncontract CappedCrowdsale {\n\n  // state variable for min capped\n  uint256 public softCap;\n  // state variable for max capped\n  uint256 public hardCap;\n\n  // call the constructor   \n  constructor(uint256 _softCap, uint _hardCap) {\n     \n     // validation of hardCap and SoftCap\n     require(_softCap > 0 && _hardCap > 0, \n     \"CappedCrowdale: Invalid Cap?\"\n     );\n     \n     // set the softCap state variable\n     softCap = _softCap;\n\n     // set the hardCap state variable\n     hardCap = _hardCap;\n  }\n  \n}",
  "sourcePath": "/home/bhupendra/dbot-contracts/contracts/cap/CappedCrowdsale.sol",
  "compiler": {
    "name": "solc",
    "version": "0.7.0+commit.9e61f92b.Emscripten.clang"
  },
  "schemaVersion": "3.3.3",
  "updatedAt": "2021-01-27T18:35:02.385Z",
  "devdoc": {
    "kind": "dev",
    "methods": {},
    "version": 1
  },
  "userdoc": {
    "kind": "user",
    "methods": {},
    "version": 1
  }
}