{
  "contractName": "DBOTCrowdsale",
  "abi": [
    {
      "inputs": [
        {
          "internalType": "uint256",
          "name": "_rate",
          "type": "uint256"
        },
        {
          "internalType": "address payable",
          "name": "_wallet",
          "type": "address"
        },
        {
          "internalType": "address",
          "name": "_dbot",
          "type": "address"
        },
        {
          "internalType": "uint256",
          "name": "_softCap",
          "type": "uint256"
        },
        {
          "internalType": "uint256",
          "name": "_hardCap",
          "type": "uint256"
        },
        {
          "internalType": "uint256",
          "name": "_investorMaxCap",
          "type": "uint256"
        },
        {
          "internalType": "address",
          "name": "_marketAddress",
          "type": "address"
        }
      ],
      "stateMutability": "nonpayable",
      "type": "constructor"
    },
    {
      "anonymous": false,
      "inputs": [
        {
          "indexed": true,
          "internalType": "address",
          "name": "previousOwner",
          "type": "address"
        },
        {
          "indexed": true,
          "internalType": "address",
          "name": "newOwner",
          "type": "address"
        }
      ],
      "name": "OwnershipTransferred",
      "type": "event"
    },
    {
      "anonymous": false,
      "inputs": [
        {
          "indexed": true,
          "internalType": "address",
          "name": "_purchaseHodl",
          "type": "address"
        },
        {
          "indexed": true,
          "internalType": "address",
          "name": "_beneficiary",
          "type": "address"
        },
        {
          "indexed": false,
          "internalType": "uint256",
          "name": "_ethValue",
          "type": "uint256"
        },
        {
          "indexed": false,
          "internalType": "uint256",
          "name": "_tokens",
          "type": "uint256"
        }
      ],
      "name": "TokenPurchase",
      "type": "event"
    },
    {
      "inputs": [
        {
          "internalType": "address[]",
          "name": "_beneficiares",
          "type": "address[]"
        }
      ],
      "name": "addManyBeneficiary",
      "outputs": [],
      "stateMutability": "nonpayable",
      "type": "function"
    },
    {
      "inputs": [
        {
          "internalType": "address",
          "name": "_beneficiary",
          "type": "address"
        }
      ],
      "name": "addSingleBeneficiary",
      "outputs": [],
      "stateMutability": "nonpayable",
      "type": "function"
    },
    {
      "inputs": [],
      "name": "dbot",
      "outputs": [
        {
          "internalType": "contract DBOT",
          "name": "",
          "type": "address"
        }
      ],
      "stateMutability": "view",
      "type": "function",
      "constant": true
    },
    {
      "inputs": [],
      "name": "hardCap",
      "outputs": [
        {
          "internalType": "uint256",
          "name": "",
          "type": "uint256"
        }
      ],
      "stateMutability": "view",
      "type": "function",
      "constant": true
    },
    {
      "inputs": [],
      "name": "hasClosed",
      "outputs": [
        {
          "internalType": "bool",
          "name": "",
          "type": "bool"
        }
      ],
      "stateMutability": "view",
      "type": "function",
      "constant": true
    },
    {
      "inputs": [],
      "name": "investorMaxCap",
      "outputs": [
        {
          "internalType": "uint256",
          "name": "",
          "type": "uint256"
        }
      ],
      "stateMutability": "view",
      "type": "function",
      "constant": true
    },
    {
      "inputs": [],
      "name": "marketAddress",
      "outputs": [
        {
          "internalType": "address",
          "name": "",
          "type": "address"
        }
      ],
      "stateMutability": "view",
      "type": "function",
      "constant": true
    },
    {
      "inputs": [],
      "name": "owner",
      "outputs": [
        {
          "internalType": "address",
          "name": "",
          "type": "address"
        }
      ],
      "stateMutability": "view",
      "type": "function",
      "constant": true
    },
    {
      "inputs": [],
      "name": "rate",
      "outputs": [
        {
          "internalType": "uint256",
          "name": "",
          "type": "uint256"
        }
      ],
      "stateMutability": "view",
      "type": "function",
      "constant": true
    },
    {
      "inputs": [
        {
          "internalType": "address",
          "name": "_beneficiary",
          "type": "address"
        }
      ],
      "name": "removeBeneficiary",
      "outputs": [],
      "stateMutability": "nonpayable",
      "type": "function"
    },
    {
      "inputs": [],
      "name": "renounceOwnership",
      "outputs": [],
      "stateMutability": "nonpayable",
      "type": "function"
    },
    {
      "inputs": [],
      "name": "softCap",
      "outputs": [
        {
          "internalType": "uint256",
          "name": "",
          "type": "uint256"
        }
      ],
      "stateMutability": "view",
      "type": "function",
      "constant": true
    },
    {
      "inputs": [
        {
          "internalType": "address",
          "name": "newOwner",
          "type": "address"
        }
      ],
      "name": "transferOwnership",
      "outputs": [],
      "stateMutability": "nonpayable",
      "type": "function"
    },
    {
      "inputs": [],
      "name": "wallet",
      "outputs": [
        {
          "internalType": "address payable",
          "name": "",
          "type": "address"
        }
      ],
      "stateMutability": "view",
      "type": "function",
      "constant": true
    },
    {
      "inputs": [],
      "name": "weiRaised",
      "outputs": [
        {
          "internalType": "uint256",
          "name": "",
          "type": "uint256"
        }
      ],
      "stateMutability": "view",
      "type": "function",
      "constant": true
    },
    {
      "stateMutability": "payable",
      "type": "receive",
      "payable": true
    },
    {
      "inputs": [],
      "name": "getCurrentRate",
      "outputs": [
        {
          "internalType": "uint256",
          "name": "",
          "type": "uint256"
        }
      ],
      "stateMutability": "view",
      "type": "function",
      "constant": true
    },
    {
      "inputs": [
        {
          "internalType": "address",
          "name": "_beneficiary",
          "type": "address"
        }
      ],
      "name": "buyTokens",
      "outputs": [],
      "stateMutability": "payable",
      "type": "function",
      "payable": true
    },
    {
      "inputs": [
        {
          "internalType": "address",
          "name": "_beneficiary",
          "type": "address"
        }
      ],
      "name": "getContributions",
      "outputs": [
        {
          "internalType": "uint256",
          "name": "",
          "type": "uint256"
        }
      ],
      "stateMutability": "view",
      "type": "function",
      "constant": true
    },
    {
      "inputs": [
        {
          "internalType": "address",
          "name": "_router",
          "type": "address"
        },
        {
          "internalType": "uint256",
          "name": "_deadline",
          "type": "uint256"
        }
      ],
      "name": "finishlized",
      "outputs": [
        {
          "internalType": "uint256",
          "name": "amountToken",
          "type": "uint256"
        },
        {
          "internalType": "uint256",
          "name": "amountETH",
          "type": "uint256"
        },
        {
          "internalType": "uint256",
          "name": "liquidity",
          "type": "uint256"
        }
      ],
      "stateMutability": "payable",
      "type": "function",
      "payable": true
    }
  ],
  "bytecode": "0x60806040523480156200001157600080fd5b506040516200269638038062002696833981810160405260e08110156200003757600080fd5b81019080805190602001909291908051906020019092919080519060200190929190805190602001909291908051906020019092919080519060200190929190805190602001909291905050508383600082118015620000975750600081115b6200010a576040517f08c379a000000000000000000000000000000000000000000000000000000000815260040180806020018281038252601c8152602001807f43617070656443726f7764616c653a20496e76616c6964204361703f0000000081525060200191505060405180910390fd5b8160008190555080600181905550505060006200012c620002a960201b60201c565b905080600260006101000a81548173ffffffffffffffffffffffffffffffffffffffff021916908373ffffffffffffffffffffffffffffffffffffffff1602179055508073ffffffffffffffffffffffffffffffffffffffff16600073ffffffffffffffffffffffffffffffffffffffff167f8be0079c531659141344cd1fd0a4f28419497f9722a3daafe3b4186f6b6457e060405160405180910390a3508660068190555084600460006101000a81548173ffffffffffffffffffffffffffffffffffffffff021916908373ffffffffffffffffffffffffffffffffffffffff16021790555085600560006101000a81548173ffffffffffffffffffffffffffffffffffffffff021916908373ffffffffffffffffffffffffffffffffffffffff1602179055508160088190555080600a60016101000a81548173ffffffffffffffffffffffffffffffffffffffff021916908373ffffffffffffffffffffffffffffffffffffffff16021790555050505050505050620002b1565b600033905090565b6123d580620002c16000396000f3fe6080604052600436106101185760003560e01c806359633a1c116100a057806395623641116100645780639562364114610513578063ec8ac4d814610554578063f2fde38b14610598578063f7fb07b0146105e9578063fb86a404146106145761011f565b806359633a1c14610414578063715018a6146104655780638da5cb5b1461047c578063906a26e0146104bd5780639250c367146104e85761011f565b80633393466e116100e75780633393466e146102925780633f19d043146102d35780634042b66f146103385780634c953c5814610363578063521eb273146103d35761011f565b80631499b1c8146101245780631515bc2b146101e95780631609082a146102165780632c4e722e146102675761011f565b3661011f57005b600080fd5b34801561013057600080fd5b506101e76004803603602081101561014757600080fd5b810190808035906020019064010000000081111561016457600080fd5b82018360208201111561017657600080fd5b8035906020019184602083028401116401000000008311171561019857600080fd5b919080806020026020016040519081016040528093929190818152602001838360200280828437600081840152601f19601f82011690508083019250505050505050919291929050505061063f565b005b3480156101f557600080fd5b506101fe610808565b60405180821515815260200191505060405180910390f35b34801561022257600080fd5b506102656004803603602081101561023957600080fd5b81019080803573ffffffffffffffffffffffffffffffffffffffff16906020019092919050505061081b565b005b34801561027357600080fd5b5061027c6109e3565b6040518082815260200191505060405180910390f35b34801561029e57600080fd5b506102a76109e9565b604051808273ffffffffffffffffffffffffffffffffffffffff16815260200191505060405180910390f35b3480156102df57600080fd5b50610322600480360360208110156102f657600080fd5b81019080803573ffffffffffffffffffffffffffffffffffffffff169060200190929190505050610a0f565b6040518082815260200191505060405180910390f35b34801561034457600080fd5b5061034d610a58565b6040518082815260200191505060405180910390f35b6103af6004803603604081101561037957600080fd5b81019080803573ffffffffffffffffffffffffffffffffffffffff16906020019092919080359060200190929190505050610a5e565b60405180848152602001838152602001828152602001935050505060405180910390f35b3480156103df57600080fd5b506103e8610fc6565b604051808273ffffffffffffffffffffffffffffffffffffffff16815260200191505060405180910390f35b34801561042057600080fd5b506104636004803603602081101561043757600080fd5b81019080803573ffffffffffffffffffffffffffffffffffffffff169060200190929190505050610fec565b005b34801561047157600080fd5b5061047a6111b4565b005b34801561048857600080fd5b5061049161133f565b604051808273ffffffffffffffffffffffffffffffffffffffff16815260200191505060405180910390f35b3480156104c957600080fd5b506104d2611369565b6040518082815260200191505060405180910390f35b3480156104f457600080fd5b506104fd61136f565b6040518082815260200191505060405180910390f35b34801561051f57600080fd5b50610528611375565b604051808273ffffffffffffffffffffffffffffffffffffffff16815260200191505060405180910390f35b6105966004803603602081101561056a57600080fd5b81019080803573ffffffffffffffffffffffffffffffffffffffff16906020019092919050505061139b565b005b3480156105a457600080fd5b506105e7600480360360208110156105bb57600080fd5b81019080803573ffffffffffffffffffffffffffffffffffffffff1690602001909291905050506114ad565b005b3480156105f557600080fd5b506105fe6116bd565b6040518082815260200191505060405180910390f35b34801561062057600080fd5b506106296116c7565b6040518082815260200191505060405180910390f35b6106476116cd565b73ffffffffffffffffffffffffffffffffffffffff16600260009054906101000a900473ffffffffffffffffffffffffffffffffffffffff1673ffffffffffffffffffffffffffffffffffffffff1614610709576040517f08c379a00000000000000000000000000000000000000000000000000000000081526004018080602001828103825260208152602001807f4f776e61626c653a2063616c6c6572206973206e6f7420746865206f776e657281525060200191505060405180910390fd5b6000815111610780576040517f08c379a000000000000000000000000000000000000000000000000000000000815260040180806020018281038252601e8152602001807f57484954454c4953543a20456d7074792042656e65666963696172657321000081525060200191505060405180910390fd5b60005b81518110156108045760016003600084848151811061079e57fe5b602002602001015173ffffffffffffffffffffffffffffffffffffffff1673ffffffffffffffffffffffffffffffffffffffff16815260200190815260200160002060006101000a81548160ff0219169083151502179055508080600101915050610783565b5050565b600a60009054906101000a900460ff1681565b6108236116cd565b73ffffffffffffffffffffffffffffffffffffffff16600260009054906101000a900473ffffffffffffffffffffffffffffffffffffffff1673ffffffffffffffffffffffffffffffffffffffff16146108e5576040517f08c379a00000000000000000000000000000000000000000000000000000000081526004018080602001828103825260208152602001807f4f776e61626c653a2063616c6c6572206973206e6f7420746865206f776e657281525060200191505060405180910390fd5b600073ffffffffffffffffffffffffffffffffffffffff168173ffffffffffffffffffffffffffffffffffffffff161415610988576040517f08c379a000000000000000000000000000000000000000000000000000000000815260040180806020018281038252601c8152602001807f57484954454c4953543a20496e76616c69642041646472657373203f0000000081525060200191505060405180910390fd5b6001600360008373ffffffffffffffffffffffffffffffffffffffff1673ffffffffffffffffffffffffffffffffffffffff16815260200190815260200160002060006101000a81548160ff02191690831515021790555050565b60065481565b600460009054906101000a900473ffffffffffffffffffffffffffffffffffffffff1681565b6000600960008373ffffffffffffffffffffffffffffffffffffffff1673ffffffffffffffffffffffffffffffffffffffff168152602001908152602001600020549050919050565b60075481565b6000806000610a6b6116cd565b73ffffffffffffffffffffffffffffffffffffffff16600260009054906101000a900473ffffffffffffffffffffffffffffffffffffffff1673ffffffffffffffffffffffffffffffffffffffff1614610b2d576040517f08c379a00000000000000000000000000000000000000000000000000000000081526004018080602001828103825260208152602001807f4f776e61626c653a2063616c6c6572206973206e6f7420746865206f776e657281525060200191505060405180910390fd5b60005460075410158015610b45575060015460075411155b610b9a576040517f08c379a00000000000000000000000000000000000000000000000000000000081526004018080602001828103825260308152602001806122d66030913960400191505060405180910390fd5b600034905060008690506000690a968163f0a57b40000090506000693f870857a3e0e38000009050610c31600a60019054906101000a900473ffffffffffffffffffffffffffffffffffffffff1683600460009054906101000a900473ffffffffffffffffffffffffffffffffffffffff1673ffffffffffffffffffffffffffffffffffffffff166116d59092919063ffffffff16565b600460009054906101000a900473ffffffffffffffffffffffffffffffffffffffff1673ffffffffffffffffffffffffffffffffffffffff1663095ea7b38a836040518363ffffffff1660e01b8152600401808373ffffffffffffffffffffffffffffffffffffffff16815260200182815260200192505050602060405180830381600087803b158015610cc457600080fd5b505af1158015610cd8573d6000803e3d6000fd5b505050506040513d6020811015610cee57600080fd5b8101908080519060200190929190505050508273ffffffffffffffffffffffffffffffffffffffff1663f305d71985600460009054906101000a900473ffffffffffffffffffffffffffffffffffffffff1684600180308f6040518863ffffffff1660e01b8152600401808773ffffffffffffffffffffffffffffffffffffffff1681526020018681526020018581526020018481526020018373ffffffffffffffffffffffffffffffffffffffff16815260200182815260200196505050505050506060604051808303818588803b158015610dca57600080fd5b505af1158015610dde573d6000803e3d6000fd5b50505050506040513d6060811015610df557600080fd5b810190808051906020019092919080519060200190929190805190602001909291905050508097508198508299505050506000610e4f83610e418460075461177790919063ffffffff16565b61177790919063ffffffff16565b9050610e5a816117c1565b6001600a60006101000a81548160ff021916908315150217905550600460009054906101000a900473ffffffffffffffffffffffffffffffffffffffff1673ffffffffffffffffffffffffffffffffffffffff1663f2fde38b600460009054906101000a900473ffffffffffffffffffffffffffffffffffffffff1673ffffffffffffffffffffffffffffffffffffffff16638da5cb5b6040518163ffffffff1660e01b815260040160206040518083038186803b158015610f1b57600080fd5b505afa158015610f2f573d6000803e3d6000fd5b505050506040513d6020811015610f4557600080fd5b81019080805190602001909291905050506040518263ffffffff1660e01b8152600401808273ffffffffffffffffffffffffffffffffffffffff168152602001915050600060405180830381600087803b158015610fa257600080fd5b505af1158015610fb6573d6000803e3d6000fd5b5050505050505050509250925092565b600560009054906101000a900473ffffffffffffffffffffffffffffffffffffffff1681565b610ff46116cd565b73ffffffffffffffffffffffffffffffffffffffff16600260009054906101000a900473ffffffffffffffffffffffffffffffffffffffff1673ffffffffffffffffffffffffffffffffffffffff16146110b6576040517f08c379a00000000000000000000000000000000000000000000000000000000081526004018080602001828103825260208152602001807f4f776e61626c653a2063616c6c6572206973206e6f7420746865206f776e657281525060200191505060405180910390fd5b600073ffffffffffffffffffffffffffffffffffffffff168173ffffffffffffffffffffffffffffffffffffffff161415611159576040517f08c379a000000000000000000000000000000000000000000000000000000000815260040180806020018281038252601c8152602001807f57484954454c4953543a20496e76616c69642041646472657373203f0000000081525060200191505060405180910390fd5b6000600360008373ffffffffffffffffffffffffffffffffffffffff1673ffffffffffffffffffffffffffffffffffffffff16815260200190815260200160002060006101000a81548160ff02191690831515021790555050565b6111bc6116cd565b73ffffffffffffffffffffffffffffffffffffffff16600260009054906101000a900473ffffffffffffffffffffffffffffffffffffffff1673ffffffffffffffffffffffffffffffffffffffff161461127e576040517f08c379a00000000000000000000000000000000000000000000000000000000081526004018080602001828103825260208152602001807f4f776e61626c653a2063616c6c6572206973206e6f7420746865206f776e657281525060200191505060405180910390fd5b600073ffffffffffffffffffffffffffffffffffffffff16600260009054906101000a900473ffffffffffffffffffffffffffffffffffffffff1673ffffffffffffffffffffffffffffffffffffffff167f8be0079c531659141344cd1fd0a4f28419497f9722a3daafe3b4186f6b6457e060405160405180910390a36000600260006101000a81548173ffffffffffffffffffffffffffffffffffffffff021916908373ffffffffffffffffffffffffffffffffffffffff160217905550565b6000600260009054906101000a900473ffffffffffffffffffffffffffffffffffffffff16905090565b60005481565b60085481565b600a60019054906101000a900473ffffffffffffffffffffffffffffffffffffffff1681565b6113a633823461192b565b60006113b134611bee565b90506113c881600754611c0c90919063ffffffff16565b506113d38282611c94565b8173ffffffffffffffffffffffffffffffffffffffff163373ffffffffffffffffffffffffffffffffffffffff167f623b3804fa71d67900d064613da8f94b9617215ee90799290593e1745087ad183484604051808381526020018281526020019250505060405180910390a3600560009054906101000a900473ffffffffffffffffffffffffffffffffffffffff1673ffffffffffffffffffffffffffffffffffffffff166108fc349081150290604051600060405180830381858888f193505050501580156114a8573d6000803e3d6000fd5b505050565b6114b56116cd565b73ffffffffffffffffffffffffffffffffffffffff16600260009054906101000a900473ffffffffffffffffffffffffffffffffffffffff1673ffffffffffffffffffffffffffffffffffffffff1614611577576040517f08c379a00000000000000000000000000000000000000000000000000000000081526004018080602001828103825260208152602001807f4f776e61626c653a2063616c6c6572206973206e6f7420746865206f776e657281525060200191505060405180910390fd5b600073ffffffffffffffffffffffffffffffffffffffff168173ffffffffffffffffffffffffffffffffffffffff1614156115fd576040517f08c379a000000000000000000000000000000000000000000000000000000000815260040180806020018281038252602681526020018061225f6026913960400191505060405180910390fd5b8073ffffffffffffffffffffffffffffffffffffffff16600260009054906101000a900473ffffffffffffffffffffffffffffffffffffffff1673ffffffffffffffffffffffffffffffffffffffff167f8be0079c531659141344cd1fd0a4f28419497f9722a3daafe3b4186f6b6457e060405160405180910390a380600260006101000a81548173ffffffffffffffffffffffffffffffffffffffff021916908373ffffffffffffffffffffffffffffffffffffffff16021790555050565b6000600654905090565b60015481565b600033905090565b6117728363a9059cbb60e01b8484604051602401808373ffffffffffffffffffffffffffffffffffffffff16815260200182815260200192505050604051602081830303815290604052907bffffffffffffffffffffffffffffffffffffffffffffffffffffffff19166020820180517bffffffffffffffffffffffffffffffffffffffffffffffffffffffff8381831617835250505050611d7a565b505050565b60006117b983836040518060400160405280601e81526020017f536166654d6174683a207375627472616374696f6e206f766572666c6f770000815250611e69565b905092915050565b60006117d86007548361177790919063ffffffff16565b9050600460009054906101000a900473ffffffffffffffffffffffffffffffffffffffff1673ffffffffffffffffffffffffffffffffffffffff16639dc29fac600460009054906101000a900473ffffffffffffffffffffffffffffffffffffffff1673ffffffffffffffffffffffffffffffffffffffff16638da5cb5b6040518163ffffffff1660e01b815260040160206040518083038186803b15801561188057600080fd5b505afa158015611894573d6000803e3d6000fd5b505050506040513d60208110156118aa57600080fd5b8101908080519060200190929190505050836040518363ffffffff1660e01b8152600401808373ffffffffffffffffffffffffffffffffffffffff16815260200182815260200192505050600060405180830381600087803b15801561190f57600080fd5b505af1158015611923573d6000803e3d6000fd5b505050505050565b81600360008273ffffffffffffffffffffffffffffffffffffffff1673ffffffffffffffffffffffffffffffffffffffff16815260200190815260200160002060009054906101000a900460ff16156119cf576040517f08c379a000000000000000000000000000000000000000000000000000000000815260040180806020018281038252602a815260200180612351602a913960400191505060405180910390fd5b600073ffffffffffffffffffffffffffffffffffffffff168373ffffffffffffffffffffffffffffffffffffffff161415611a55576040517f08c379a000000000000000000000000000000000000000000000000000000000815260040180806020018281038252602b8152602001806122ab602b913960400191505060405180910390fd5b6000821415611acc576040517f08c379a000000000000000000000000000000000000000000000000000000000815260040180806020018281038252601b8152602001807f50524556414c49444154494f4e3a20496e76616c6964205745493f000000000081525060200191505060405180910390fd5b8160085411611b43576040517f08c379a000000000000000000000000000000000000000000000000000000000815260040180806020018281038252601d8152602001807f50524556414c49444154494f4e3a20496e76616c696420416d6f756e7400000081525060200191505060405180910390fd5b611b4b611f29565b15611be8578373ffffffffffffffffffffffffffffffffffffffff166108fc839081150290604051600060405180830381858888f19350505050158015611b96573d6000803e3d6000fd5b506040517f08c379a000000000000000000000000000000000000000000000000000000000815260040180806020018281038252602581526020018061237b6025913960400191505060405180910390fd5b50505050565b6000611c0560065483611f3890919063ffffffff16565b9050919050565b600080828401905083811015611c8a576040517f08c379a000000000000000000000000000000000000000000000000000000000815260040180806020018281038252601b8152602001807f536166654d6174683a206164646974696f6e206f766572666c6f77000000000081525060200191505060405180910390fd5b8091505092915050565b611ce681600960008573ffffffffffffffffffffffffffffffffffffffff1673ffffffffffffffffffffffffffffffffffffffff16815260200190815260200160002054611c0c90919063ffffffff16565b600960008473ffffffffffffffffffffffffffffffffffffffff1673ffffffffffffffffffffffffffffffffffffffff16815260200190815260200160002081905550611d768282600460009054906101000a900473ffffffffffffffffffffffffffffffffffffffff1673ffffffffffffffffffffffffffffffffffffffff166116d59092919063ffffffff16565b5050565b6060611ddc826040518060400160405280602081526020017f5361666545524332303a206c6f772d6c6576656c2063616c6c206661696c65648152508573ffffffffffffffffffffffffffffffffffffffff16611fbe9092919063ffffffff16565b9050600081511115611e6457808060200190516020811015611dfd57600080fd5b8101908080519060200190929190505050611e63576040517f08c379a000000000000000000000000000000000000000000000000000000000815260040180806020018281038252602a815260200180612327602a913960400191505060405180910390fd5b5b505050565b6000838311158290611f16576040517f08c379a00000000000000000000000000000000000000000000000000000000081526004018080602001828103825283818151815260200191508051906020019080838360005b83811015611edb578082015181840152602081019050611ec0565b50505050905090810190601f168015611f085780820380516001836020036101000a031916815260200191505b509250505060405180910390fd5b5060008385039050809150509392505050565b60006001546007541015905090565b600080831415611f4b5760009050611fb8565b6000828402905082848281611f5c57fe5b0414611fb3576040517f08c379a00000000000000000000000000000000000000000000000000000000081526004018080602001828103825260218152602001806123066021913960400191505060405180910390fd5b809150505b92915050565b6060611fcd8484600085611fd6565b90509392505050565b606082471015612031576040517f08c379a00000000000000000000000000000000000000000000000000000000081526004018080602001828103825260268152602001806122856026913960400191505060405180910390fd5b61203a8561217f565b6120ac576040517f08c379a000000000000000000000000000000000000000000000000000000000815260040180806020018281038252601d8152602001807f416464726573733a2063616c6c20746f206e6f6e2d636f6e747261637400000081525060200191505060405180910390fd5b600060608673ffffffffffffffffffffffffffffffffffffffff1685876040518082805190602001908083835b602083106120fc57805182526020820191506020810190506020830392506120d9565b6001836020036101000a03801982511681845116808217855250505050505090500191505060006040518083038185875af1925050503d806000811461215e576040519150601f19603f3d011682016040523d82523d6000602084013e612163565b606091505b5091509150612173828286612192565b92505050949350505050565b600080823b905060008111915050919050565b606083156121a257829050612257565b6000835111156121b55782518084602001fd5b816040517f08c379a00000000000000000000000000000000000000000000000000000000081526004018080602001828103825283818151815260200191508051906020019080838360005b8381101561221c578082015181840152602081019050612201565b50505050905090810190601f1680156122495780820380516001836020036101000a031916815260200191505b509250505060405180910390fd5b939250505056fe4f776e61626c653a206e6577206f776e657220697320746865207a65726f2061646472657373416464726573733a20696e73756666696369656e742062616c616e636520666f722063616c6c50524556414c49444154494f4e3a20496e76616c69642062656e656669636961727920616464726573732e43524f574453414c453a2046696e7a6174696f6e204572726f722043616e74272041636869766520536f66744361702e536166654d6174683a206d756c7469706c69636174696f6e206f766572666c6f775361666545524332303a204552433230206f7065726174696f6e20646964206e6f74207375636365656457484954454c4953543a2042656e6566696369617279206973206e6f742077686974656c69737465642150524556414c49444154494f4e3a2048617264206361702067657473207265616368656421a2646970667358221220e132acc47671fb9242a9b782b2f6fe1490056a993d3ee185b997b84c24088a3264736f6c63430007000033",
  "immutableReferences": {},
  "source": "// SPDX-License-Identifier: MIT;\npragma solidity ^0.7.0;\n\nimport \"@openzeppelin/contracts/token/ERC20/SafeERC20.sol\";\nimport \"@openzeppelin/contracts/math/SafeMath.sol\";\nimport \"./cap/CappedCrowdsale.sol\";\nimport \"./validation/Whitelist.sol\";\nimport \"./interfaces/IUniswapRouter02.sol\";\nimport \"./DBOT.sol\";\n\ncontract DBOTCrowdsale is CappedCrowdsale,Whitelist {\n\n // set library are you using.\n using SafeERC20 for DBOT;      \n using SafeMath for uint256;\n\n // set Contract Instance\n DBOT public dbot;\n\n // address where funds collected\n address payable public wallet;\n\n // set rate 1 ETH = 1500 dbot\n uint256 public rate;\n\n // weiRaised in Crowdsale\n uint256 public weiRaised;\n\n // investorMaxCap for maximum contribution\n uint256 public investorMaxCap;\n\n // mapping for contributors\n mapping (address => uint256) contributors;   \n\n // called when hardCap got reached.\n bool public hasClosed;\n\n // market address\n address public marketAddress;\n\n // event for TokenPurchase\n event TokenPurchase(\n     address indexed _purchaseHodl,\n     address indexed _beneficiary,\n     uint256 _ethValue,\n     uint256 _tokens\n );\n\n // call the constructor for initial crowdsale\n\n constructor(\n    uint256 _rate,\n    address payable _wallet,\n    address _dbot,\n    uint256 _softCap,\n    uint256 _hardCap,\n    uint256 _investorMaxCap,\n    address _marketAddress\n ) CappedCrowdsale(_softCap,_hardCap) {\n     // set the state of rate \n     rate = _rate;\n\n     // set the instance of dbot token\n     dbot = DBOT(_dbot);\n\n     // set Address for collecting ETH.\n     wallet = _wallet;\n\n     // set maximum cap giving by the investor.\n     investorMaxCap = _investorMaxCap;\n\n     // set market address state\n     marketAddress = _marketAddress;\n }\n\n // dont forget to receive ethers;\n receive() external payable {}\n \n // get current rate from the ico.\n function getCurrentRate() public view returns(uint256) {\n     return rate;\n } \n\n // get Converted token 1 ETH = 1500 DBOT;    \n function getTokenAmount(uint256 _weiValue) internal view returns(uint256 expectedTokens) {\n     // get expected tokens for _weiValue;\n     expectedTokens = _weiValue.mul(rate);\n } \n\n // buyTokens with ETH/ 1500     \n function buyTokens(address _beneficiary) external payable  {\n    \n    // validate the post behaviour of crowdsale\n    _preValidatePurchase(msg.sender,_beneficiary,msg.value);\n\n    // calcaulate token should be created.\n    uint256 _expectedTokens = getTokenAmount(msg.value);\n\n    // update the weiRaised\n    weiRaised.add(_expectedTokens);\n\n    // process the purchase\n    _processPurchase(_beneficiary,_expectedTokens);\n\n    // emit the event after transfer the tokens\n    emit TokenPurchase(\n        msg.sender,\n        _beneficiary,\n        msg.value,\n        _expectedTokens\n        );\n    // forward the fund to the multisig wallet\n    wallet.transfer(msg.value);\n\n }\n\n // check if cap get reach the goal.\n function capReached() internal view returns(bool){\n     return (weiRaised >= hardCap); \n }\n \n // pre-validation for checking\n function _preValidatePurchase(address payable _purchaseHodl,address _beneficiary,uint256 _investorAmount) internal isWhiteListed(_beneficiary) {\n     // validate the pre-request\n     require(_beneficiary != address(0),\"PREVALIDATION: Invalid beneficiary address.\");\n     require(_investorAmount != 0,\"PREVALIDATION: Invalid WEI?\");\n     require(investorMaxCap > _investorAmount, \"PREVALIDATION: Invalid Amount\");\n     // check if has achive the cap it will refunds the ETH fund.\n     if(capReached()){\n     // refund the eth back to the user when hard cap met;\n     _purchaseHodl.transfer(_investorAmount);    \n     // revert the transaction refund ethereum to the investor. \n     revert(\"PREVALIDATION: Hard cap gets reached!\");\n     }\n }\n\n // process the purchase init.   \n function _processPurchase(address _beneficiary, uint256 _tokenValue) internal {\n     // add candidate to the contributors mapping.\n     contributors[_beneficiary] = contributors[_beneficiary].add(_tokenValue);\n     // transfer the tokens investor owned. but the DBOT contract owner must be crowdsale Contract.\n     dbot.safeTransfer(_beneficiary, _tokenValue);\n }\n\n // function for get Contribution.\n function getContributions(address _beneficiary) public view returns(uint256){\n   return contributors[_beneficiary];  \n }\n\n // last function that will be called after the crowdsale has been done.\n // \n function finishlized(address _router, uint256 _deadline) external payable onlyOwner returns(uint256 amountToken,uint256 amountETH, uint256 liquidity) {\n    // first check require the  condition that it will between softcap and hardcap.\n    require(weiRaised >= softCap && weiRaised <= hardCap, \"CROWDSALE: Finzation Error Cant' Achive SoftCap.\");\n    // if condition will true. that gather 40% eth.\n    uint256 amountETHDesired = msg.value;\n    // now you can add liquidity into the pool.\n    IUniswapRouter02 router = IUniswapRouter02(_router);\n    \n    // tokenNomics of DBOT.\n    /*\n    11,000,00 totalSupply.\n    750,000 presale supply.\n    300,000 uniswap liduidity tokens.\n    50,000 marketing supply tokens.\n     */\n\n    // distribute market tokens.\n    uint256 marketTokens = 50000 ether;\n    \n    // approve router to access tokens\n    uint256 liquidityTokens = 300000 ether;\n    \n    //distribute the market tokens on that address.\n    dbot.safeTransfer(marketAddress, marketTokens);\n    \n    // give allowance to expand this tokens\n    dbot.approve(_router,liquidityTokens);\n\n    // add liquidity into token pool.\n    (amountToken,amountETH,liquidity) = router.addLiquidityETH{value: amountETHDesired}(\n        address(dbot), \n        liquidityTokens,\n        1, \n        1, \n        address(this),\n        _deadline\n        );\n\n    // now deal with remaining tokens that will be burned.\n    // burn dust tokens.\n    \n    uint256 newSupply = weiRaised.sub(liquidityTokens).sub(marketTokens);\n    _burnDustTokens(newSupply);\n\n    // finally update the state of hasClosed.\n    hasClosed = true;\n    // make owner to the owner of that contract\n    dbot.transferOwnership(dbot.owner());\n\n }\n\n function _burnDustTokens(uint256 _newSupply) internal {\n     // here is the logic of burn tokens\n     uint256 burnedTokens = _newSupply.sub(weiRaised);\n     // transfer that token into address(0)\n     dbot.burn(dbot.owner(), burnedTokens);\n }    \n\n}",
  "sourcePath": "/home/bhupendra/dbot-contracts/contracts/DBOTCrowdsale.sol",
  "compiler": {
    "name": "solc",
    "version": "0.7.0+commit.9e61f92b.Emscripten.clang"
  },
  "schemaVersion": "3.3.3",
  "updatedAt": "2021-01-28T14:28:57.939Z",
  "networkType": "ethereum",
  "devdoc": {
    "kind": "dev",
    "methods": {
      "owner()": {
        "details": "Returns the address of the current owner."
      },
      "renounceOwnership()": {
        "details": "Leaves the contract without owner. It will not be possible to call `onlyOwner` functions anymore. Can only be called by the current owner. NOTE: Renouncing ownership will leave the contract without an owner, thereby removing any functionality that is only available to the owner."
      },
      "transferOwnership(address)": {
        "details": "Transfers ownership of the contract to a new account (`newOwner`). Can only be called by the current owner."
      }
    },
    "version": 1
  },
  "userdoc": {
    "kind": "user",
    "methods": {},
    "version": 1
  }
}