{
  "contractName": "DBOTCrowdsale",
  "abi": [
    {
      "inputs": [
        {
          "internalType": "uint256",
          "name": "_rate",
          "type": "uint256"
        },
        {
          "internalType": "address payable",
          "name": "_wallet",
          "type": "address"
        },
        {
          "internalType": "address",
          "name": "_dbot",
          "type": "address"
        },
        {
          "internalType": "uint256",
          "name": "_softCap",
          "type": "uint256"
        },
        {
          "internalType": "uint256",
          "name": "_hardCap",
          "type": "uint256"
        },
        {
          "internalType": "uint256",
          "name": "_investorMaxCap",
          "type": "uint256"
        }
      ],
      "stateMutability": "nonpayable",
      "type": "constructor"
    },
    {
      "anonymous": false,
      "inputs": [
        {
          "indexed": true,
          "internalType": "address",
          "name": "previousOwner",
          "type": "address"
        },
        {
          "indexed": true,
          "internalType": "address",
          "name": "newOwner",
          "type": "address"
        }
      ],
      "name": "OwnershipTransferred",
      "type": "event"
    },
    {
      "anonymous": false,
      "inputs": [
        {
          "indexed": true,
          "internalType": "address",
          "name": "_purchaseHodl",
          "type": "address"
        },
        {
          "indexed": true,
          "internalType": "address",
          "name": "_beneficiary",
          "type": "address"
        },
        {
          "indexed": false,
          "internalType": "uint256",
          "name": "_ethValue",
          "type": "uint256"
        },
        {
          "indexed": false,
          "internalType": "uint256",
          "name": "_tokens",
          "type": "uint256"
        }
      ],
      "name": "TokenPurchase",
      "type": "event"
    },
    {
      "inputs": [
        {
          "internalType": "address[]",
          "name": "_beneficiares",
          "type": "address[]"
        }
      ],
      "name": "addManyBeneficiary",
      "outputs": [],
      "stateMutability": "nonpayable",
      "type": "function"
    },
    {
      "inputs": [
        {
          "internalType": "address",
          "name": "_beneficiary",
          "type": "address"
        }
      ],
      "name": "addSingleBeneficiary",
      "outputs": [],
      "stateMutability": "nonpayable",
      "type": "function"
    },
    {
      "inputs": [],
      "name": "dbot",
      "outputs": [
        {
          "internalType": "contract IERC20",
          "name": "",
          "type": "address"
        }
      ],
      "stateMutability": "view",
      "type": "function"
    },
    {
      "inputs": [],
      "name": "hardCap",
      "outputs": [
        {
          "internalType": "uint256",
          "name": "",
          "type": "uint256"
        }
      ],
      "stateMutability": "view",
      "type": "function"
    },
    {
      "inputs": [],
      "name": "hasClosed",
      "outputs": [
        {
          "internalType": "bool",
          "name": "",
          "type": "bool"
        }
      ],
      "stateMutability": "view",
      "type": "function"
    },
    {
      "inputs": [],
      "name": "investorMaxCap",
      "outputs": [
        {
          "internalType": "uint256",
          "name": "",
          "type": "uint256"
        }
      ],
      "stateMutability": "view",
      "type": "function"
    },
    {
      "inputs": [],
      "name": "owner",
      "outputs": [
        {
          "internalType": "address",
          "name": "",
          "type": "address"
        }
      ],
      "stateMutability": "view",
      "type": "function"
    },
    {
      "inputs": [],
      "name": "rate",
      "outputs": [
        {
          "internalType": "uint256",
          "name": "",
          "type": "uint256"
        }
      ],
      "stateMutability": "view",
      "type": "function"
    },
    {
      "inputs": [
        {
          "internalType": "address",
          "name": "_beneficiary",
          "type": "address"
        }
      ],
      "name": "removeBeneficiary",
      "outputs": [],
      "stateMutability": "nonpayable",
      "type": "function"
    },
    {
      "inputs": [],
      "name": "renounceOwnership",
      "outputs": [],
      "stateMutability": "nonpayable",
      "type": "function"
    },
    {
      "inputs": [],
      "name": "softCap",
      "outputs": [
        {
          "internalType": "uint256",
          "name": "",
          "type": "uint256"
        }
      ],
      "stateMutability": "view",
      "type": "function"
    },
    {
      "inputs": [
        {
          "internalType": "address",
          "name": "newOwner",
          "type": "address"
        }
      ],
      "name": "transferOwnership",
      "outputs": [],
      "stateMutability": "nonpayable",
      "type": "function"
    },
    {
      "inputs": [],
      "name": "wallet",
      "outputs": [
        {
          "internalType": "address payable",
          "name": "",
          "type": "address"
        }
      ],
      "stateMutability": "view",
      "type": "function"
    },
    {
      "inputs": [],
      "name": "weiRaised",
      "outputs": [
        {
          "internalType": "uint256",
          "name": "",
          "type": "uint256"
        }
      ],
      "stateMutability": "view",
      "type": "function"
    },
    {
      "stateMutability": "payable",
      "type": "receive"
    },
    {
      "inputs": [],
      "name": "getCurrentRate",
      "outputs": [
        {
          "internalType": "uint256",
          "name": "",
          "type": "uint256"
        }
      ],
      "stateMutability": "view",
      "type": "function"
    },
    {
      "inputs": [
        {
          "internalType": "address",
          "name": "_beneficiary",
          "type": "address"
        }
      ],
      "name": "buyTokens",
      "outputs": [],
      "stateMutability": "payable",
      "type": "function"
    },
    {
      "inputs": [
        {
          "internalType": "address",
          "name": "_beneficiary",
          "type": "address"
        }
      ],
      "name": "getContributions",
      "outputs": [
        {
          "internalType": "uint256",
          "name": "",
          "type": "uint256"
        }
      ],
      "stateMutability": "view",
      "type": "function"
    }
  ],
  "bytecode": "0x608060405234801561001057600080fd5b50604051611def380380611def833981810160405260c081101561003357600080fd5b8101908080519060200190929190805190602001909291908051906020019092919080519060200190929190805190602001909291908051906020019092919050505082826000821180156100885750600081115b6100fa576040517f08c379a000000000000000000000000000000000000000000000000000000000815260040180806020018281038252601c8152602001807f43617070656443726f7764616c653a20496e76616c6964204361703f0000000081525060200191505060405180910390fd5b816000819055508060018190555050506001600281905550600061012261025c60201b60201c565b905080600360006101000a81548173ffffffffffffffffffffffffffffffffffffffff021916908373ffffffffffffffffffffffffffffffffffffffff1602179055508073ffffffffffffffffffffffffffffffffffffffff16600073ffffffffffffffffffffffffffffffffffffffff167f8be0079c531659141344cd1fd0a4f28419497f9722a3daafe3b4186f6b6457e060405160405180910390a3508560078190555083600560006101000a81548173ffffffffffffffffffffffffffffffffffffffff021916908373ffffffffffffffffffffffffffffffffffffffff16021790555084600660006101000a81548173ffffffffffffffffffffffffffffffffffffffff021916908373ffffffffffffffffffffffffffffffffffffffff16021790555080600981905550505050505050610264565b600033905090565b611b7c806102736000396000f3fe6080604052600436106101025760003560e01c806359633a1c116100955780639250c367116100645780639250c36714610462578063ec8ac4d81461048d578063f2fde38b146104d1578063f7fb07b014610522578063fb86a4041461054d57610109565b806359633a1c1461038e578063715018a6146103df5780638da5cb5b146103f6578063906a26e01461043757610109565b80633393466e116100d15780633393466e1461027c5780633f19d043146102bd5780634042b66f14610322578063521eb2731461034d57610109565b80631499b1c81461010e5780631515bc2b146101d35780631609082a146102005780632c4e722e1461025157610109565b3661010957005b600080fd5b34801561011a57600080fd5b506101d16004803603602081101561013157600080fd5b810190808035906020019064010000000081111561014e57600080fd5b82018360208201111561016057600080fd5b8035906020019184602083028401116401000000008311171561018257600080fd5b919080806020026020016040519081016040528093929190818152602001838360200280828437600081840152601f19601f820116905080830192505050505050509192919290505050610578565b005b3480156101df57600080fd5b506101e8610741565b60405180821515815260200191505060405180910390f35b34801561020c57600080fd5b5061024f6004803603602081101561022357600080fd5b81019080803573ffffffffffffffffffffffffffffffffffffffff169060200190929190505050610754565b005b34801561025d57600080fd5b5061026661091c565b6040518082815260200191505060405180910390f35b34801561028857600080fd5b50610291610922565b604051808273ffffffffffffffffffffffffffffffffffffffff16815260200191505060405180910390f35b3480156102c957600080fd5b5061030c600480360360208110156102e057600080fd5b81019080803573ffffffffffffffffffffffffffffffffffffffff169060200190929190505050610948565b6040518082815260200191505060405180910390f35b34801561032e57600080fd5b50610337610991565b6040518082815260200191505060405180910390f35b34801561035957600080fd5b50610362610997565b604051808273ffffffffffffffffffffffffffffffffffffffff16815260200191505060405180910390f35b34801561039a57600080fd5b506103dd600480360360208110156103b157600080fd5b81019080803573ffffffffffffffffffffffffffffffffffffffff1690602001909291905050506109bd565b005b3480156103eb57600080fd5b506103f4610b85565b005b34801561040257600080fd5b5061040b610d10565b604051808273ffffffffffffffffffffffffffffffffffffffff16815260200191505060405180910390f35b34801561044357600080fd5b5061044c610d3a565b6040518082815260200191505060405180910390f35b34801561046e57600080fd5b50610477610d40565b6040518082815260200191505060405180910390f35b6104cf600480360360208110156104a357600080fd5b81019080803573ffffffffffffffffffffffffffffffffffffffff169060200190929190505050610d46565b005b3480156104dd57600080fd5b50610520600480360360208110156104f457600080fd5b81019080803573ffffffffffffffffffffffffffffffffffffffff169060200190929190505050610e72565b005b34801561052e57600080fd5b50610537611082565b6040518082815260200191505060405180910390f35b34801561055957600080fd5b5061056261108c565b6040518082815260200191505060405180910390f35b610580611092565b73ffffffffffffffffffffffffffffffffffffffff16600360009054906101000a900473ffffffffffffffffffffffffffffffffffffffff1673ffffffffffffffffffffffffffffffffffffffff1614610642576040517f08c379a00000000000000000000000000000000000000000000000000000000081526004018080602001828103825260208152602001807f4f776e61626c653a2063616c6c6572206973206e6f7420746865206f776e657281525060200191505060405180910390fd5b60008151116106b9576040517f08c379a000000000000000000000000000000000000000000000000000000000815260040180806020018281038252601e8152602001807f57484954454c4953543a20456d7074792042656e65666963696172657321000081525060200191505060405180910390fd5b60005b815181101561073d576001600460008484815181106106d757fe5b602002602001015173ffffffffffffffffffffffffffffffffffffffff1673ffffffffffffffffffffffffffffffffffffffff16815260200190815260200160002060006101000a81548160ff02191690831515021790555080806001019150506106bc565b5050565b600b60009054906101000a900460ff1681565b61075c611092565b73ffffffffffffffffffffffffffffffffffffffff16600360009054906101000a900473ffffffffffffffffffffffffffffffffffffffff1673ffffffffffffffffffffffffffffffffffffffff161461081e576040517f08c379a00000000000000000000000000000000000000000000000000000000081526004018080602001828103825260208152602001807f4f776e61626c653a2063616c6c6572206973206e6f7420746865206f776e657281525060200191505060405180910390fd5b600073ffffffffffffffffffffffffffffffffffffffff168173ffffffffffffffffffffffffffffffffffffffff1614156108c1576040517f08c379a000000000000000000000000000000000000000000000000000000000815260040180806020018281038252601c8152602001807f57484954454c4953543a20496e76616c69642041646472657373203f0000000081525060200191505060405180910390fd5b6001600460008373ffffffffffffffffffffffffffffffffffffffff1673ffffffffffffffffffffffffffffffffffffffff16815260200190815260200160002060006101000a81548160ff02191690831515021790555050565b60075481565b600560009054906101000a900473ffffffffffffffffffffffffffffffffffffffff1681565b6000600a60008373ffffffffffffffffffffffffffffffffffffffff1673ffffffffffffffffffffffffffffffffffffffff168152602001908152602001600020549050919050565b60085481565b600660009054906101000a900473ffffffffffffffffffffffffffffffffffffffff1681565b6109c5611092565b73ffffffffffffffffffffffffffffffffffffffff16600360009054906101000a900473ffffffffffffffffffffffffffffffffffffffff1673ffffffffffffffffffffffffffffffffffffffff1614610a87576040517f08c379a00000000000000000000000000000000000000000000000000000000081526004018080602001828103825260208152602001807f4f776e61626c653a2063616c6c6572206973206e6f7420746865206f776e657281525060200191505060405180910390fd5b600073ffffffffffffffffffffffffffffffffffffffff168173ffffffffffffffffffffffffffffffffffffffff161415610b2a576040517f08c379a000000000000000000000000000000000000000000000000000000000815260040180806020018281038252601c8152602001807f57484954454c4953543a20496e76616c69642041646472657373203f0000000081525060200191505060405180910390fd5b6000600460008373ffffffffffffffffffffffffffffffffffffffff1673ffffffffffffffffffffffffffffffffffffffff16815260200190815260200160002060006101000a81548160ff02191690831515021790555050565b610b8d611092565b73ffffffffffffffffffffffffffffffffffffffff16600360009054906101000a900473ffffffffffffffffffffffffffffffffffffffff1673ffffffffffffffffffffffffffffffffffffffff1614610c4f576040517f08c379a00000000000000000000000000000000000000000000000000000000081526004018080602001828103825260208152602001807f4f776e61626c653a2063616c6c6572206973206e6f7420746865206f776e657281525060200191505060405180910390fd5b600073ffffffffffffffffffffffffffffffffffffffff16600360009054906101000a900473ffffffffffffffffffffffffffffffffffffffff1673ffffffffffffffffffffffffffffffffffffffff167f8be0079c531659141344cd1fd0a4f28419497f9722a3daafe3b4186f6b6457e060405160405180910390a36000600360006101000a81548173ffffffffffffffffffffffffffffffffffffffff021916908373ffffffffffffffffffffffffffffffffffffffff160217905550565b6000600360009054906101000a900473ffffffffffffffffffffffffffffffffffffffff16905090565b60005481565b60095481565b600280541415610dbe576040517f08c379a000000000000000000000000000000000000000000000000000000000815260040180806020018281038252601f8152602001807f5265656e7472616e637947756172643a207265656e7472616e742063616c6c0081525060200191505060405180910390fd5b60028081905550610dd033823461109a565b6000610ddb346113e3565b9050610df28160085461140190919063ffffffff16565b50610dfd8282611489565b600660009054906101000a900473ffffffffffffffffffffffffffffffffffffffff1673ffffffffffffffffffffffffffffffffffffffff166108fc349081150290604051600060405180830381858888f19350505050158015610e65573d6000803e3d6000fd5b5050600160028190555050565b610e7a611092565b73ffffffffffffffffffffffffffffffffffffffff16600360009054906101000a900473ffffffffffffffffffffffffffffffffffffffff1673ffffffffffffffffffffffffffffffffffffffff1614610f3c576040517f08c379a00000000000000000000000000000000000000000000000000000000081526004018080602001828103825260208152602001807f4f776e61626c653a2063616c6c6572206973206e6f7420746865206f776e657281525060200191505060405180910390fd5b600073ffffffffffffffffffffffffffffffffffffffff168173ffffffffffffffffffffffffffffffffffffffff161415610fc2576040517f08c379a0000000000000000000000000000000000000000000000000000000008152600401808060200182810382526026815260200180611a366026913960400191505060405180910390fd5b8073ffffffffffffffffffffffffffffffffffffffff16600360009054906101000a900473ffffffffffffffffffffffffffffffffffffffff1673ffffffffffffffffffffffffffffffffffffffff167f8be0079c531659141344cd1fd0a4f28419497f9722a3daafe3b4186f6b6457e060405160405180910390a380600360006101000a81548173ffffffffffffffffffffffffffffffffffffffff021916908373ffffffffffffffffffffffffffffffffffffffff16021790555050565b6000600754905090565b60015481565b600033905090565b81600460008273ffffffffffffffffffffffffffffffffffffffff1673ffffffffffffffffffffffffffffffffffffffff16815260200190815260200160002060009054906101000a900460ff1661113d576040517f08c379a000000000000000000000000000000000000000000000000000000000815260040180806020018281038252602a815260200180611af8602a913960400191505060405180910390fd5b6002805414156111b5576040517f08c379a000000000000000000000000000000000000000000000000000000000815260040180806020018281038252601f8152602001807f5265656e7472616e637947756172643a207265656e7472616e742063616c6c0081525060200191505060405180910390fd5b60028081905550600073ffffffffffffffffffffffffffffffffffffffff168373ffffffffffffffffffffffffffffffffffffffff161415611242576040517f08c379a000000000000000000000000000000000000000000000000000000000815260040180806020018281038252602b815260200180611a82602b913960400191505060405180910390fd5b60008214156112b9576040517f08c379a000000000000000000000000000000000000000000000000000000000815260040180806020018281038252601b8152602001807f50524556414c49444154494f4e3a20496e76616c6964205745493f000000000081525060200191505060405180910390fd5b8160095411611330576040517f08c379a000000000000000000000000000000000000000000000000000000000815260040180806020018281038252601d8152602001807f50524556414c49444154494f4e3a20496e76616c696420416d6f756e7400000081525060200191505060405180910390fd5b61133861156f565b156113d5578373ffffffffffffffffffffffffffffffffffffffff166108fc839081150290604051600060405180830381858888f19350505050158015611383573d6000803e3d6000fd5b506040517f08c379a0000000000000000000000000000000000000000000000000000000008152600401808060200182810382526025815260200180611b226025913960400191505060405180910390fd5b600160028190555050505050565b60006113fa6007548361157e90919063ffffffff16565b9050919050565b60008082840190508381101561147f576040517f08c379a000000000000000000000000000000000000000000000000000000000815260040180806020018281038252601b8152602001807f536166654d6174683a206164646974696f6e206f766572666c6f77000000000081525060200191505060405180910390fd5b8091505092915050565b6114db81600a60008573ffffffffffffffffffffffffffffffffffffffff1673ffffffffffffffffffffffffffffffffffffffff1681526020019081526020016000205461140190919063ffffffff16565b600a60008473ffffffffffffffffffffffffffffffffffffffff1673ffffffffffffffffffffffffffffffffffffffff1681526020019081526020016000208190555061156b8282600560009054906101000a900473ffffffffffffffffffffffffffffffffffffffff1673ffffffffffffffffffffffffffffffffffffffff166116049092919063ffffffff16565b5050565b60006001546008541015905090565b60008083141561159157600090506115fe565b60008284029050828482816115a257fe5b04146115f9576040517f08c379a0000000000000000000000000000000000000000000000000000000008152600401808060200182810382526021815260200180611aad6021913960400191505060405180910390fd5b809150505b92915050565b6116a18363a9059cbb60e01b8484604051602401808373ffffffffffffffffffffffffffffffffffffffff16815260200182815260200192505050604051602081830303815290604052907bffffffffffffffffffffffffffffffffffffffffffffffffffffffff19166020820180517bffffffffffffffffffffffffffffffffffffffffffffffffffffffff83818316178352505050506116a6565b505050565b6060611708826040518060400160405280602081526020017f5361666545524332303a206c6f772d6c6576656c2063616c6c206661696c65648152508573ffffffffffffffffffffffffffffffffffffffff166117959092919063ffffffff16565b90506000815111156117905780806020019051602081101561172957600080fd5b810190808051906020019092919050505061178f576040517f08c379a000000000000000000000000000000000000000000000000000000000815260040180806020018281038252602a815260200180611ace602a913960400191505060405180910390fd5b5b505050565b60606117a484846000856117ad565b90509392505050565b606082471015611808576040517f08c379a0000000000000000000000000000000000000000000000000000000008152600401808060200182810382526026815260200180611a5c6026913960400191505060405180910390fd5b61181185611956565b611883576040517f08c379a000000000000000000000000000000000000000000000000000000000815260040180806020018281038252601d8152602001807f416464726573733a2063616c6c20746f206e6f6e2d636f6e747261637400000081525060200191505060405180910390fd5b600060608673ffffffffffffffffffffffffffffffffffffffff1685876040518082805190602001908083835b602083106118d357805182526020820191506020810190506020830392506118b0565b6001836020036101000a03801982511681845116808217855250505050505090500191505060006040518083038185875af1925050503d8060008114611935576040519150601f19603f3d011682016040523d82523d6000602084013e61193a565b606091505b509150915061194a828286611969565b92505050949350505050565b600080823b905060008111915050919050565b6060831561197957829050611a2e565b60008351111561198c5782518084602001fd5b816040517f08c379a00000000000000000000000000000000000000000000000000000000081526004018080602001828103825283818151815260200191508051906020019080838360005b838110156119f35780820151818401526020810190506119d8565b50505050905090810190601f168015611a205780820380516001836020036101000a031916815260200191505b509250505060405180910390fd5b939250505056fe4f776e61626c653a206e6577206f776e657220697320746865207a65726f2061646472657373416464726573733a20696e73756666696369656e742062616c616e636520666f722063616c6c50524556414c49444154494f4e3a20496e76616c69642062656e656669636961727920616464726573732e536166654d6174683a206d756c7469706c69636174696f6e206f766572666c6f775361666545524332303a204552433230206f7065726174696f6e20646964206e6f74207375636365656457484954454c4953543a2042656e6566696369617279206973206e6f742077686974656c69737465642150524556414c49444154494f4e3a2048617264206361702067657473207265616368656421a26469706673582212200fa4bafde04d340a76772e409b94a9244ec776ff433758324278af669b32a2d664736f6c63430007000033",
  "immutableReferences": {},
  "source": "// SPDX-License-Identifier: MIT;\npragma solidity ^0.7.0;\n\nimport \"@openzeppelin/contracts/token/ERC20/IERC20.sol\";\nimport \"@openzeppelin/contracts/token/ERC20/SafeERC20.sol\";\nimport \"@openzeppelin/contracts/math/SafeMath.sol\";\nimport \"@openzeppelin/contracts/utils/ReentrancyGuard.sol\";\nimport \"./cap/CappedCrowdsale.sol\";\nimport \"./validation/Whitelist.sol\";\n\ncontract DBOTCrowdsale is CappedCrowdsale,ReentrancyGuard,Whitelist {\n\n // set library are you using.\n using SafeERC20 for IERC20;      \n using SafeMath for uint256;\n\n // set Contract Instance\n IERC20 public dbot;\n\n // address where funds collected\n address payable public wallet;\n\n // set rate 1 ETH = 1500 dbot\n uint256 public rate;\n\n // weiRaised in Crowdsale\n uint256 public weiRaised;\n\n // investorMaxCap for maximum contribution\n uint256 public investorMaxCap;\n\n // mapping for contributors\n mapping (address => uint256) contributors;   \n\n // called when hardCap got reached.\n bool public hasClosed;   \n // event for TokenPurchase\n\n event TokenPurchase(\n     address indexed _purchaseHodl,\n     address indexed _beneficiary,\n     uint256 _ethValue,\n     uint256 _tokens\n );\n\n // call the constructor for initial crowdsale\n\n constructor(\n    uint256 _rate,\n    address payable _wallet,\n    address _dbot,\n    uint256 _softCap,\n    uint256 _hardCap,\n    uint256 _investorMaxCap\n ) CappedCrowdsale(_softCap,_hardCap) {\n     // set the state of rate \n     rate = _rate;\n\n     // set the instance of dbot token\n     dbot = IERC20(_dbot);\n\n     // set Address for collecting ETH.\n     wallet = _wallet;\n\n     // set maximum cap giving by the investor.\n     investorMaxCap = _investorMaxCap;\n }\n\n // dont forget to receive ethers;\n receive() external payable {}\n \n // get current rate from the ico.\n function getCurrentRate() public view returns(uint256) {\n     return rate;\n } \n\n // get Converted token 1 ETH = 1500 DBOT;    \n function getTokenAmount(uint256 _weiValue) internal view returns(uint256 expectedTokens) {\n     // get expected tokens for _weiValue;\n     expectedTokens = _weiValue.mul(rate);\n } \n\n // buyTokens with ETH/ 1500     \n function buyTokens(address _beneficiary) external payable nonReentrant() {\n    \n    // validate the post behaviour of crowdsale\n    _preValidatePurchase(msg.sender,_beneficiary,msg.value);\n\n    // calcaulate token should be created.\n    uint256 _expectedTokens = getTokenAmount(msg.value);\n\n    // update the weiRaised\n    weiRaised.add(_expectedTokens);\n\n    // process the purchase\n    _processPurchase(_beneficiary,_expectedTokens);\n\n    // forward the fund to the multisig wallet\n    wallet.transfer(msg.value);\n\n }\n\n // check if cap get reach the goal.\n function capReached() internal view returns(bool){\n     return (weiRaised >= hardCap); \n }\n \n // pre-validation for checking\n function _preValidatePurchase(address payable _purchaseHodl,address _beneficiary,uint256 _investorAmount) internal isWhiteListed(_beneficiary) nonReentrant() {\n     // validate the pre-request\n     require(_beneficiary != address(0),\"PREVALIDATION: Invalid beneficiary address.\");\n     require(_investorAmount != 0,\"PREVALIDATION: Invalid WEI?\");\n     require(investorMaxCap > _investorAmount, \"PREVALIDATION: Invalid Amount\");\n     // check if has achive the cap it will refunds the ETH fund.\n     if(capReached()){\n     // refund the eth back to the user when hard cap met;\n     _purchaseHodl.transfer(_investorAmount);    \n     // revert the transaction refund ethereum to the investor. \n     revert(\"PREVALIDATION: Hard cap gets reached!\");\n     }\n }\n\n // process the purchase init.   \n function _processPurchase(address _beneficiary, uint256 _tokenValue) internal {\n     // add candidate to the contributors mapping.\n     contributors[_beneficiary] = contributors[_beneficiary].add(_tokenValue);\n\n     // transfer the tokens investor owned. but the DBOT contract owner must be crowdsale Contract.\n     dbot.safeTransfer(_beneficiary, _tokenValue);\n }\n\n // function for get Contribution.\n function getContributions(address _beneficiary) public view returns(uint256){\n   return contributors[_beneficiary];  \n }    \n\n\n}",
  "sourcePath": "/home/bhupendra/dbot-contracts/contracts/DBOTCrowdsale.sol",
  "compiler": {
    "name": "solc",
    "version": "0.7.0+commit.9e61f92b.Emscripten.clang"
  },
  "schemaVersion": "3.3.3",
  "updatedAt": "2021-01-27T18:35:02.365Z",
  "devdoc": {
    "kind": "dev",
    "methods": {
      "owner()": {
        "details": "Returns the address of the current owner."
      },
      "renounceOwnership()": {
        "details": "Leaves the contract without owner. It will not be possible to call `onlyOwner` functions anymore. Can only be called by the current owner. NOTE: Renouncing ownership will leave the contract without an owner, thereby removing any functionality that is only available to the owner."
      },
      "transferOwnership(address)": {
        "details": "Transfers ownership of the contract to a new account (`newOwner`). Can only be called by the current owner."
      }
    },
    "version": 1
  },
  "userdoc": {
    "kind": "user",
    "methods": {},
    "version": 1
  }
}